{
  "contractName": "piggyBank",
  "abi": [
    {
      "inputs": [],
      "stateMutability": "nonpayable",
      "type": "constructor"
    },
    {
      "inputs": [
        {
          "internalType": "address",
          "name": "",
          "type": "address"
        }
      ],
      "name": "children",
      "outputs": [
        {
          "internalType": "uint256",
          "name": "balance",
          "type": "uint256"
        },
        {
          "internalType": "uint256",
          "name": "targetDate",
          "type": "uint256"
        }
      ],
      "stateMutability": "view",
      "type": "function",
      "constant": true
    },
    {
      "inputs": [
        {
          "internalType": "address",
          "name": "",
          "type": "address"
        }
      ],
      "name": "isRelative",
      "outputs": [
        {
          "internalType": "bool",
          "name": "",
          "type": "bool"
        }
      ],
      "stateMutability": "view",
      "type": "function",
      "constant": true
    },
    {
      "inputs": [],
      "name": "parent",
      "outputs": [
        {
          "internalType": "address",
          "name": "",
          "type": "address"
        }
      ],
      "stateMutability": "view",
      "type": "function",
      "constant": true
    },
    {
      "inputs": [
        {
          "internalType": "address",
          "name": "_relativeAccount",
          "type": "address"
        }
      ],
      "name": "addRelatives",
      "outputs": [],
      "stateMutability": "nonpayable",
      "type": "function"
    },
    {
      "inputs": [
        {
          "internalType": "address",
          "name": "_account",
          "type": "address"
        },
        {
          "internalType": "uint256",
          "name": "_targetDate",
          "type": "uint256"
        }
      ],
      "name": "addChild",
      "outputs": [],
      "stateMutability": "nonpayable",
      "type": "function"
    },
    {
      "inputs": [
        {
          "internalType": "address",
          "name": "_account",
          "type": "address"
        }
      ],
      "name": "deposit",
      "outputs": [],
      "stateMutability": "payable",
      "type": "function",
      "payable": true
    },
    {
      "inputs": [
        {
          "internalType": "uint256",
          "name": "_amount",
          "type": "uint256"
        }
      ],
      "name": "withdraw",
      "outputs": [],
      "stateMutability": "nonpayable",
      "type": "function"
    }
  ],
  "bytecode": "0x608060405234801561001057600080fd5b50336000806101000a81548173ffffffffffffffffffffffffffffffffffffffff021916908373ffffffffffffffffffffffffffffffffffffffff160217905550610d21806100606000396000f3fe6080604052600436106100705760003560e01c8063e90aacf81161004e578063e90aacf814610106578063f0018da71461012f578063f340fa011461016d578063fec9535a1461018957610070565b80632e1a7d4d1461007557806360f96a8f1461009e5780637c0df958146100c9575b600080fd5b34801561008157600080fd5b5061009c60048036038101906100979190610897565b6101b2565b005b3480156100aa57600080fd5b506100b36103e4565b6040516100c09190610905565b60405180910390f35b3480156100d557600080fd5b506100f060048036038101906100eb919061094c565b610408565b6040516100fd9190610994565b60405180910390f35b34801561011257600080fd5b5061012d600480360381019061012891906109af565b610428565b005b34801561013b57600080fd5b506101566004803603810190610151919061094c565b6105bd565b6040516101649291906109fe565b60405180910390f35b6101876004803603810190610182919061094c565b6105e1565b005b34801561019557600080fd5b506101b060048036038101906101ab919061094c565b61071f565b005b6000600160003373ffffffffffffffffffffffffffffffffffffffff1673ffffffffffffffffffffffffffffffffffffffff1681526020019081526020016000206001015411610237576040517f08c379a000000000000000000000000000000000000000000000000000000000815260040161022e90610a84565b60405180910390fd5b80600160003373ffffffffffffffffffffffffffffffffffffffff1673ffffffffffffffffffffffffffffffffffffffff1681526020019081526020016000206000015410156102bc576040517f08c379a00000000000000000000000000000000000000000000000000000000081526004016102b390610af0565b60405180910390fd5b42600160003373ffffffffffffffffffffffffffffffffffffffff1673ffffffffffffffffffffffffffffffffffffffff168152602001908152602001600020600101541115610341576040517f08c379a000000000000000000000000000000000000000000000000000000000815260040161033890610b5c565b60405180910390fd5b80600160003373ffffffffffffffffffffffffffffffffffffffff1673ffffffffffffffffffffffffffffffffffffffff16815260200190815260200160002060000160008282546103939190610bab565b925050819055503373ffffffffffffffffffffffffffffffffffffffff166108fc829081150290604051600060405180830381858888f193505050501580156103e0573d6000803e3d6000fd5b5050565b60008054906101000a900473ffffffffffffffffffffffffffffffffffffffff1681565b60026020528060005260406000206000915054906101000a900460ff1681565b60008054906101000a900473ffffffffffffffffffffffffffffffffffffffff1673ffffffffffffffffffffffffffffffffffffffff163373ffffffffffffffffffffffffffffffffffffffff1614806104cb5750600260003373ffffffffffffffffffffffffffffffffffffffff1673ffffffffffffffffffffffffffffffffffffffff16815260200190815260200160002060009054906101000a900460ff165b61050a576040517f08c379a000000000000000000000000000000000000000000000000000000000815260040161050190610c2b565b60405180910390fd5b8042111561054d576040517f08c379a000000000000000000000000000000000000000000000000000000000815260040161054490610c97565b60405180910390fd5b60405180604001604052806000815260200182815250600160008473ffffffffffffffffffffffffffffffffffffffff1673ffffffffffffffffffffffffffffffffffffffff16815260200190815260200160002060008201518160000155602082015181600101559050505050565b60016020528060005260406000206000915090508060000154908060010154905082565b60008054906101000a900473ffffffffffffffffffffffffffffffffffffffff1673ffffffffffffffffffffffffffffffffffffffff163373ffffffffffffffffffffffffffffffffffffffff1614806106845750600260003373ffffffffffffffffffffffffffffffffffffffff1673ffffffffffffffffffffffffffffffffffffffff16815260200190815260200160002060009054906101000a900460ff165b6106c3576040517f08c379a00000000000000000000000000000000000000000000000000000000081526004016106ba90610c2b565b60405180910390fd5b34600160008373ffffffffffffffffffffffffffffffffffffffff1673ffffffffffffffffffffffffffffffffffffffff16815260200190815260200160002060000160008282546107159190610cb7565b9250508190555050565b60008054906101000a900473ffffffffffffffffffffffffffffffffffffffff1673ffffffffffffffffffffffffffffffffffffffff163373ffffffffffffffffffffffffffffffffffffffff1614806107c25750600260003373ffffffffffffffffffffffffffffffffffffffff1673ffffffffffffffffffffffffffffffffffffffff16815260200190815260200160002060009054906101000a900460ff165b610801576040517f08c379a00000000000000000000000000000000000000000000000000000000081526004016107f890610c2b565b60405180910390fd5b6001600260008373ffffffffffffffffffffffffffffffffffffffff1673ffffffffffffffffffffffffffffffffffffffff16815260200190815260200160002060006101000a81548160ff02191690831515021790555050565b600080fd5b6000819050919050565b61087481610861565b811461087f57600080fd5b50565b6000813590506108918161086b565b92915050565b6000602082840312156108ad576108ac61085c565b5b60006108bb84828501610882565b91505092915050565b600073ffffffffffffffffffffffffffffffffffffffff82169050919050565b60006108ef826108c4565b9050919050565b6108ff816108e4565b82525050565b600060208201905061091a60008301846108f6565b92915050565b610929816108e4565b811461093457600080fd5b50565b60008135905061094681610920565b92915050565b6000602082840312156109625761096161085c565b5b600061097084828501610937565b91505092915050565b60008115159050919050565b61098e81610979565b82525050565b60006020820190506109a96000830184610985565b92915050565b600080604083850312156109c6576109c561085c565b5b60006109d485828601610937565b92505060206109e585828601610882565b9150509250929050565b6109f881610861565b82525050565b6000604082019050610a1360008301856109ef565b610a2060208301846109ef565b9392505050565b600082825260208201905092915050565b7f235042303031202d204368696c64206e6f7420666f756e640000000000000000600082015250565b6000610a6e601883610a27565b9150610a7982610a38565b602082019050919050565b60006020820190508181036000830152610a9d81610a61565b9050919050565b7f235042303032202d20496e73756666696369656e742066756e64730000000000600082015250565b6000610ada601b83610a27565b9150610ae582610aa4565b602082019050919050565b60006020820190508181036000830152610b0981610acd565b9050919050565b7f235042303033202d20546f6f206561726c790000000000000000000000000000600082015250565b6000610b46601283610a27565b9150610b5182610b10565b602082019050919050565b60006020820190508181036000830152610b7581610b39565b9050919050565b7f4e487b7100000000000000000000000000000000000000000000000000000000600052601160045260246000fd5b6000610bb682610861565b9150610bc183610861565b9250828203905081811115610bd957610bd8610b7c565b5b92915050565b7f4f6e6c792072656c617469766573000000000000000000000000000000000000600082015250565b6000610c15600e83610a27565b9150610c2082610bdf565b602082019050919050565b60006020820190508181036000830152610c4481610c08565b9050919050565b7f456e74657220612076616c696420646174650000000000000000000000000000600082015250565b6000610c81601283610a27565b9150610c8c82610c4b565b602082019050919050565b60006020820190508181036000830152610cb081610c74565b9050919050565b6000610cc282610861565b9150610ccd83610861565b9250828201905080821115610ce557610ce4610b7c565b5b9291505056fea26469706673582212201608dc89eae11fa52b6d8114969a0bac1a6173b74c695f2fa7dcc45ce8fa8c0d64736f6c63430008110033",
  "immutableReferences": {},
  "source": "// SPDX-License-Identifier: MIT\npragma solidity 0.8.17;\n\ncontract piggyBank {\n\t\n\tstruct Child {\n\t\tuint256 balance;\n\t\tuint256 targetDate;\t\t\n\t}\n\taddress public parent;\n\tmapping (address  => Child) public children;\t\n    mapping (address  => bool) public isRelative;\n\n    modifier onlyRelatives {\n      require(msg.sender == parent || isRelative[msg.sender], 'Only relatives' );\n      _;\n   }\n\n\tconstructor() {\t\t\n\t\tparent = msg.sender;\n\t}\n\n  function addRelatives(address _relativeAccount) public onlyRelatives  {\n        isRelative[_relativeAccount] = true;\n   }\n\n  function addChild(address _account, uint256 _targetDate) public onlyRelatives {\n\n    // require(children[_account].targetDate != 0,'This child already exists');\n    require(block.timestamp <= _targetDate,'Enter a valid date');\t\n\n    children[_account] = Child(0,_targetDate);\t\n    }\n\n  function deposit(address _account) payable external onlyRelatives {\n    \n      children[_account].balance += msg.value;\n  }\n\n  function withdraw(uint256 _amount) external {\n        // require(children[msg.sender].account == msg.sender, \"Child not found\");\n        require(\n            children[msg.sender].targetDate > 0,\n            \"#PB001 - Child not found\"\n        );\n\n        // verificar que tenga un monto acumulado (suficiente, considerando retiros parciales)\n        require(\n            children[msg.sender].balance >= _amount,\n            \"#PB002 - Insufficient funds\"\n        );\n\n        // verificar que haya alcanzado la fecha objetivo\n        require(\n            children[msg.sender].targetDate <= block.timestamp,\n            \"#PB003 - Too early\"\n        );\n\n        children[msg.sender].balance -= _amount;\n        payable(msg.sender).transfer(_amount);\n    }\n\n \n\n}\n",
  "sourcePath": "C:\\Users\\Zeta\\Desktop\\01-piggy-bank-GS\\contracts\\contracts\\piggyBank.sol",
  "compiler": {
    "name": "solc",
    "version": "0.8.17+commit.8df45f5f.Emscripten.clang"
  },
  "schemaVersion": "3.4.10",
  "updatedAt": "2022-10-18T14:38:50.933Z",
  "networkType": "ethereum",
  "devdoc": {
    "kind": "dev",
    "methods": {},
    "version": 1
  },
  "userdoc": {
    "kind": "user",
    "methods": {},
    "version": 1
  }
}